:100000000C944C000C94E4010C94E4010C94E40175
:100010000C94E4010C94E4010C94E4010C94E401CC
:100020000C94E4010C94E4010C94E4010C94E401BC
:100030000C94E4010C94E4010C94E4010C94E401AC
:100040000C94E4010C94E4010C94E4010C94E4019C
:100050000C94E4010C94E4010C94E4010C94E4018C
:100060000C94E4010C94E4010C94E4010C94E4017C
:100070000C94E4010C94E4010C94E4010C94E4016C
:100080000C94E4010C94E4010C94E40101000104DB
:10009000800104011C0003D611241FBECFEFD0E164
:1000A000DEBFCDBFECE8F0E040E019C0B791A7910A
:1000B00037912791079107FD0EC097918791EF0126
:1000C000F92FE82F0BBF07900D92A217B307D9F7AE
:1000D000FE011BBE04C01D92A217B307E1F7E83969
:1000E000F40721F70E9498010C94CB01F894FFCFFC
:1000F0004F925F926F927F928F929F92AF92BF9238
:10010000CF92DF92EF92FF92CF93DF9300D000D097
:10011000CDB7DEB76B017C010F2EFAE08F2E912C4C
:10012000A12CB12CF02DA50194010E9476016983C8
:100130007A838B839C83CA01B901A50194010E9433
:1001400076012B013C01C701B60124E630E040E016
:1001500050E00E947601CA01B901A50194010E94F4
:1001600076014B015C01C701B60128EE33E040E0A7
:1001700050E00E947601E981FA81EC5FFE4F8081B8
:10018000E0E0F1E08083D201AC5FBE4F8C918183CF
:10019000D401AC5FBE4F8C918283D901AC5FBE4F5E
:1001A0008C91838388EEC81683E0D806E104F104BD
:1001B00078F484E6C816D104E104F10460F48AE01E
:1001C000C816D104E104F10448F082E090E008C0D0
:1001D00084E090E005C083E090E002C081E090E020
:1001E000909315018093140180E091E00E945401E6
:1001F00080E091E00F900F900F900F90DF91CF91E2
:10020000FF90EF90DF90CF90BF90AF909F908F9036
:0A0210007F906F905F904F9008956B
:10021A00AC018091160190911701892B01F1E091AF
:10022A001801F091190180818F608083E091180193
:10023A00F091190123E030E0241B350B81E090E0B6
:10024A0002C0880F991F2A95E2F780959081892329
:10025A008083E0911A01F0911B0160830895E09177
:10026A001801F09119019081907F9083E091180113
:10027A00F091190123E030E0241B350B81E090E076
:10028A0002C0880F991F2A95E2F79081892B8083F3
:0E029A00E0911A01F0911B01609560830895B8
:1002A8000F931F93CF93DF938C01C0E0D0E00EC073
:1002B800F801EC0FFD1F6081CE010E940D018FE156
:1002C8009EE40197F1F700C0000021968091140187
:1002D80090911501C817D9075CF3DF91CF911F9151
:0402E8000F910895D5
:1002EC00A1E21A2EAA1BBB1BFD010DC0AA1FBB1F2E
:1002FC00EE1FFF1FA217B307E407F50720F0A21BA0
:10030C00B30BE40BF50B661F771F881F991F1A940C
:10031C0069F760957095809590959B01AC01BD0136
:04032C00CF01089560
:100330008FEF8ABB8FE087BB68E370E08BE390E0D0
:100340000E94D60181E090E00E94DF0181E090E010
:100350000E94B501349BFECF64B175B1072E000C2D
:0A036000880B990B0E947800F5CF7E
:10036A0027B1206427B926B1276026B926B12068AB
:10037A0026B926B1206226B927B1207E822B97B1F1
:0C038A00892B87B986B1806486B908957C
:10039600EC010E94E9010E94E801CE010E94EA01F7
:0603A600CE010E94E601F9
:1003AC0090931B0180931A017093190160931801AB
:0203BC000895A2
:0A03BE009093170180931601089533
:0403C8000C94000091
:0403CC000E94760015
:0203D00008958E
:0203D20008958C
:0203D40008958A
:1003D6003F065B4F666D7D277F67777C585E797138
:0203E600040011
:0203E800010012
:0203EA003800D9
:0203EC003B00D4
:00000001FF
