:1000000045C0000060C000005EC000005CC0000091
:100010005AC0000058C0000056C0000054C0000084
:1000200052C0000050C0000070C000004CC0000072
:100030004AC0000048C0000046C0000044C00000A4
:1000400042C0000040C000003EC000003CC00000B4
:100050003AC0000038C0000036C0000034C00000C4
:1000600032C0000030C000002EC000002CC00000D4
:100070002AC0000028C0000026C0000024C00000E4
:1000800022C0000020C000001EC0000011241FBEBE
:10009000CFEFD0E1DEBFCDBF11E0A0E0B1E0E2E9FB
:1000A000F3E000E00BBF02C007900D92A831B1074A
:1000B000D9F721E0A8E1B1E001C01D92A032B2075A
:1000C000E1F702D064C19CCF8FEF8ABB8FE087BB82
:1000D00068E370E08BE390E033D080E090E039D0CB
:1000E00087B7806487BF84E083BF87E085BD8FB713
:1000F00080688FBF789460911A0170911B01072E60
:10010000000C880B990B92D0F6CF1F920F920FB66E
:100110000F9211248F939F9380911A0190911B014C
:10012000019690931B0180931A011092190110926D
:1001300018019F918F910F900FBE0F901F901895EF
:100140009093070180930601709305016093040169
:10015000089590930301809302010895AC0180916A
:10016000020190910301892B01F1E0910401F091CA
:10017000050180818F608083E0910401F091050189
:1001800023E030E0241B350B81E090E002C0880FB3
:10019000991F2A95E2F78095908189238083E091C9
:1001A0000601F091070160830895E0910401F09148
:1001B00005019081907F9083E0910401F091050109
:1001C00023E030E0241B350B81E090E002C0880F73
:1001D000991F2A95E2F79081892B8083E09106018F
:1001E000F09107016095608308950F931F93CF935B
:1001F000DF938C01C0E0D0E00DC0F801EC0FFD1FD3
:100200006081CE01ABDF8FE19EE40197F1F700C082
:10021000000021968091000190910101C817D90733
:1002200064F3DF91CF911F910F9108954F925F92E8
:100230006F927F928F929F92AF92BF92CF92DF92F6
:10024000EF92FF92CF93DF9300D000D0CDB7DEB70F
:100250006B017C010F2EFAE08F2E912CA12CB12C7A
:10026000F02DA501940171D069837A838B839C83DF
:10027000CA01B901A501940168D02B013C01C70155
:10028000B60124E630E040E050E05FD0CA01B90199
:10029000A50194015AD04B015C01C701B60128EEBB
:1002A00033E040E050E051D0E981FA81E85FFE4F51
:1002B0008081ECE1F1E08083D201A85FBE4F8C9198
:1002C0008183D401A85FBE4F8C918283D901A85F3E
:1002D000BE4F8C91838388EEC81683E0D806E10474
:1002E000F10478F484E6C816D104E104F10460F462
:1002F0008AE0C816D104E104F10448F082E090E0FD
:1003000008C084E090E005C083E090E002C081E096
:1003100090E090930101809300018CE191E065DF12
:100320008CE191E00F900F900F900F90DF91CF91A3
:10033000FF90EF90DF90CF90BF90AF909F908F9005
:100340007F906F905F904F900895A1E21A2EAA1BA4
:10035000BB1BFD010DC0AA1FBB1FEE1FFF1FA21775
:10036000B307E407F50720F0A21BB30BE40BF50B72
:10037000661F771F881F991F1A9469F760957095FB
:10038000809590959B01AC01BD01CF010895F89433
:02039000FFCF9D
:100392000400010038003B003F065B4F666D7D277D
:0803A2007F67777C585E7971DA
:00000001FF
